{
  "transactions": [
    {
      "hash": "0x3861ef171c34662cf39026897d949084382bef247d3459ad738db04b401965af",
      "transactionType": "CREATE",
      "contractName": "CommitUtils",
      "contractAddress": "0x6AE4B27DA02fdF0D946aFFA18fbc03CBC2717014",
      "function": null,
      "arguments": null,
      "transaction": {
        "type": "0x02",
        "from": "0x9db3a915dfdc6f6975769657fe2194d661ba536f",
        "gas": "0x2bc39",
        "data": "0x61018761003a600b82828239805160001a60731461002d57634e487b7160e01b600052600060045260246000fd5b30600052607381538281f3fe73000000000000000000000000000000000000000030146080604052600436106100405760003560e01c80634036778f1461004557806388fa72491461006d575b600080fd5b6100586100533660046100f7565b61008e565b60405190151581526020015b60405180910390f35b61008061007b366004610119565b6100ba565b604051908152602001610064565b60008061009b33856100ba565b90508281036100ae5760019150506100b4565b60009150505b92915050565b604080516001600160a01b038416602082015290810182905260009060600160405160208183030381529060405280519060200120905092915050565b6000806040838503121561010a57600080fd5b50508035926020909101359150565b6000806040838503121561012c57600080fd5b82356001600160a01b038116811461014357600080fd5b94602093909301359350505056fea264697066735822122018a820892d4db1f0712006d2fb8acfbf66f6d7a0d764e2b501dae017857fcf5f64736f6c634300080d0033",
        "nonce": "0xf",
        "accessList": []
      },
      "additionalContracts": [],
      "isFixedGasLimit": false
    },
    {
      "hash": "0x45f1cb89c6ba4c1ae212f45ce06b0a9685a12dda466bcdb4ff976b19c425a490",
      "transactionType": "CREATE",
      "contractName": "CommitReveralRandomness",
      "contractAddress": "0x99B422C0d1625304bE4BCB04A3cA20Af02d998A2",
      "function": null,
      "arguments": [
        "[0x9dB3a915dFdc6f6975769657fE2194d661bA536f, 0x6E10679Eaf9Cc4733274a0F85148F4126364C2b5, 0x793591f2569B27208Df6ed3CEB396E1C89f4c630]"
      ],
      "transaction": {
        "type": "0x02",
        "from": "0x9db3a915dfdc6f6975769657fe2194d661ba536f",
        "gas": "0x74f9e",
        "value": "0x0",
        "data": "0x608060405234801561001057600080fd5b506040516105e63803806105e683398101604081905261002f916100ed565b60005b81518110156100b15760408051600160208201520160405160208183030381529060405280519060200120600080848481518110610072576100726101b1565b60200260200101516001600160a01b03166001600160a01b031681526020019081526020016000208190555080806100a9906101c7565b915050610032565b50516001556101ee565b634e487b7160e01b600052604160045260246000fd5b80516001600160a01b03811681146100e857600080fd5b919050565b6000602080838503121561010057600080fd5b82516001600160401b038082111561011757600080fd5b818501915085601f83011261012b57600080fd5b81518181111561013d5761013d6100bb565b8060051b604051601f19603f83011681018181108582111715610162576101626100bb565b60405291825284820192508381018501918883111561018057600080fd5b938501935b828510156101a557610196856100d1565b84529385019392850192610185565b98975050505050505050565b634e487b7160e01b600052603260045260246000fd5b6000600182016101e757634e487b7160e01b600052601160045260246000fd5b5060010190565b6103e9806101fd6000396000f3fe608060405234801561001057600080fd5b506004361061007d5760003560e01c8063b9da1dc61161005b578063b9da1dc6146100c6578063c2ca0ac5146100cf578063f14fcbc8146100e4578063fbd0d310146100f757600080fd5b806307aafa981461008257806309e69ede1461009e57806339e7357c146100be575b600080fd5b61008b60025481565b6040519081526020015b60405180910390f35b61008b6100ac366004610323565b60006020819052908152604090205481565b60025461008b565b61008b60015481565b6100e26100dd366004610353565b61010f565b005b6100e26100f2366004610353565b610240565b6100ff61030b565b6040519015158152602001610095565b60015415610130576040516322ff4ef160e01b815260040160405180910390fd5b33600090815260208190526040808220549051634036778f60e01b8152736ae4b27da02fdf0d946affa18fbc03cbc271701491634036778f91610180918691600401918252602082015260400190565b602060405180830381865af415801561019d573d6000803e3d6000fd5b505050506040513d601f19601f820116820180604052508101906101c1919061036c565b9050806101e157604051639ea6d12760e01b815260040160405180910390fd5b600254604080516020810192909252810183905260600160408051601f1981840301815290829052805160209091012060025533907fb43a48f4b5fe1b13780390dc7b039206c4f81535c0fda507c687d7e921eb18bb90600090a25050565b33600090815260208190526040812054908190036102715760405163179e806d60e01b815260040160405180910390fd5b6040805160016020820152016040516020818303038152906040528051906020012081146102b25760405163112d6a4d60e21b815260040160405180910390fd5b33600090815260208190526040812083905560018054909182916102d790839061038e565b909155505060405133907f599481bd81d46ea2372b7f45ab8900ac58961566f184806290d9ede4e0fc764190600090a25050565b600060015460000361031d5750600190565b50600090565b60006020828403121561033557600080fd5b81356001600160a01b038116811461034c57600080fd5b9392505050565b60006020828403121561036557600080fd5b5035919050565b60006020828403121561037e57600080fd5b8151801515811461034c57600080fd5b6000828210156103ae57634e487b7160e01b600052601160045260246000fd5b50039056fea26469706673582212209269517075981cd6572aa9f366c94507e143bf33f2b742d97b523053483e7a0f64736f6c634300080d0033000000000000000000000000000000000000000000000000000000000000002000000000000000000000000000000000000000000000000000000000000000030000000000000000000000009db3a915dfdc6f6975769657fe2194d661ba536f0000000000000000000000006e10679eaf9cc4733274a0f85148f4126364c2b5000000000000000000000000793591f2569b27208df6ed3ceb396e1c89f4c630",
        "nonce": "0x10",
        "accessList": []
      },
      "additionalContracts": [],
      "isFixedGasLimit": false
    },
    {
      "hash": "0x9faa0ce13c5f1afe36fcc74f4723018b8ac8a6c1008dd2d9f8813d5eb11f897f",
      "transactionType": "CREATE",
      "contractName": "PeerGrading",
      "contractAddress": "0x6805b9009d51CA91d5F8bB41C81f036DEf691113",
      "function": null,
      "arguments": [
        "[0x9dB3a915dFdc6f6975769657fE2194d661bA536f, 0x6E10679Eaf9Cc4733274a0F85148F4126364C2b5, 0x793591f2569B27208Df6ed3CEB396E1C89f4c630]",
        "0x99B422C0d1625304bE4BCB04A3cA20Af02d998A2",
        "2"
      ],
      "transaction": {
        "type": "0x02",
        "from": "0x9db3a915dfdc6f6975769657fe2194d661ba536f",
        "gas": "0x1b9406",
        "value": "0x0",
        "data": "0x60806040526006805460ff199081169091556008805490911690553480156200002757600080fd5b50604051620017ae380380620017ae8339810160408190526200004a916200029b565b80835111620000de5760405162461bcd60e51b815260206004820152605060248201527f4e756d626572206f662061737369676e6d656e7473207065722070617274696360448201527f6970616e74206d757374206265206c6573736572207468616e206e756d62657260648201526f206f66207061727469636970616e747360801b608482015260a40160405180910390fd5b60005b8351811015620001f857620000f8816001620003a0565b600080868481518110620001105762000110620003bb565b6020908102919091018101516001600160a01b031682528101919091526040016000206002015562000144816001620003a0565b848281518110620001595762000159620003bb565b60200260200101516001600160a01b03167f3087081998813b524fe5bfb62b23127ab88f76896bbbc43aa2b580bde451763060405160405180910390a3838181518110620001ab57620001ab620003bb565b60209081029190910181015160008381526001909252604090912080546001600160a01b0319166001600160a01b0390921691909117905580620001ef81620003d1565b915050620000e1565b5060088054610100600160a81b0319166101006001600160a01b03851602179055825183906000906200022f576200022f620003bb565b6020908102919091010151600480546001600160a01b0319166001600160a01b03909216919091179055915160055550600355620003ed565b634e487b7160e01b600052604160045260246000fd5b80516001600160a01b03811681146200029657600080fd5b919050565b600080600060608486031215620002b157600080fd5b83516001600160401b0380821115620002c957600080fd5b818601915086601f830112620002de57600080fd5b8151602082821115620002f557620002f562000268565b8160051b604051601f19603f830116810181811086821117156200031d576200031d62000268565b60405292835281830193508481018201928a8411156200033c57600080fd5b948201945b83861015620003655762000355866200027e565b8552948201949382019362000341565b97506200037690508882016200027e565b955050505050604084015190509250925092565b634e487b7160e01b600052601160045260246000fd5b60008219821115620003b657620003b66200038a565b500190565b634e487b7160e01b600052603260045260246000fd5b600060018201620003e657620003e66200038a565b5060010190565b6113b180620003fd6000396000f3fe608060405234801561001057600080fd5b50600436106100935760003560e01c8063632a9a5211610066578063632a9a52146101555780637143059f1461015f578063860bea87146101835780639d448d2414610196578063d54e4b99146101b657600080fd5b8063019f9ef91461009857806309e69ede146100c15780630c3f6acf1461010b57806321f7de5314610125575b600080fd5b6100ab6100a6366004610a32565b6101be565b6040516100b89190610b07565b60405180910390f35b6100f06100cf366004610b4e565b60006020819052908152604090208054600182015460029092015490919083565b604080519384526020840192909252908201526060016100b8565b6008546101189060ff1681565b6040516100b89190610b7e565b60085461013d9061010090046001600160a01b031681565b6040516001600160a01b0390911681526020016100b8565b61015d610343565b005b61017261016d366004610b4e565b6103e2565b6040516100b8959493929190610be1565b61015d610191366004610c24565b610514565b6101a96101a4366004610b4e565b6105bf565b6040516100b89190610c61565b61015d610830565b60606000825167ffffffffffffffff8111156101dc576101dc61094c565b604051908082528060200260200182016040528015610205578160200160208202803683370190505b50905060005b83518160ff16101561033b5760008060005b868460ff168151811061023257610232610c74565b6020026020010151518160ff1610156102fb576000825b89518160ff1610156102d457888660ff168151811061026a5761026a610c74565b60200260200101518360ff168151811061028657610286610c74565b602002602001015160ff168a8260ff16815181106102a6576102a6610c74565b602002602001015160ff16036102c257809350600191506102d4565b806102cc81610ca0565b915050610249565b50806102e8576102e5600185610cbf565b93505b50806102f381610ca0565b91505061021d565b5081848460ff168151811061031257610312610c74565b602002602001019060ff16908160ff16815250505050808061033390610ca0565b91505061020b565b509392505050565b33600090815260208190526040812060020154900361039d5760405162461bcd60e51b8152602060048201526011602482015270139bdd0818481c185c9d1a58da5c185b9d607a1b60448201526064015b60405180910390fd5b6001600260008282546103b09190610ce4565b909155505060405133907f16a9aa39af49f169911e977347975198c503525f7240d6892a626f0227642fce90600090a2565b60008060006060806000806000886001600160a01b03166001600160a01b031681526020019081526020016000206040518060a00160405290816000820154815260200160018201548152602001600282015481526020016003820180548060200260200160405190810160405280929190818152602001828054801561048857602002820191906000526020600020905b815481526020019060010190808311610474575b50505050508152602001600482018054806020026020016040519081016040528092919081815260200182805480156104e057602002820191906000526020600020905b8154815260200190600101908083116104cc575b5050509190925250508151602083015160408401516060850151608090950151929c919b5099509297509550909350505050565b3360009081526020819052604081206002015490036105695760405162461bcd60e51b8152602060048201526011602482015270139bdd0818481c185c9d1a58da5c185b9d607a1b6044820152606401610394565b805161057c906007906020840190610891565b50600060025560405133907f5cc0e5bf5f40fff8ef623d36904aa6e6a9096143192597ab46bc537605b61e08906105b4908490610b07565b60405180910390a250565b606060035467ffffffffffffffff8111156105dc576105dc61094c565b604051908082528060200260200182016040528015610605578160200160208202803683370190505b5080516001600160a01b038416600090815260208190526040812060020154929350909190805b60055481101561068f5782610642826001610ce4565b1461067d57610652816001610ce4565b85838151811061066457610664610c74565b602090810291909101015261067a600183610ce4565b91505b8061068781610cfc565b91505061062c565b50600061069d600185610d15565b90505b80156108275760006106b3826001610ce4565b82886001600160a01b0316600860019054906101000a90046001600160a01b03166001600160a01b03166339e7357c6040518163ffffffff1660e01b8152600401602060405180830381865afa158015610711573d6000803e3d6000fd5b505050506040513d601f19601f820116820180604052508101906107359190610d2c565b61073f9190610ce4565b6107499190610ce4565b6107539190610d5b565b90505b610761826001610ce4565b86828151811061077357610773610c74565b60200260200101510361079d578461078c826001610ce4565b6107969190610d5b565b9050610756565b60008683815181106107b1576107b1610c74565b602002602001015190508682815181106107cd576107cd610c74565b60200260200101518784815181106107e7576107e7610c74565b6020026020010181815250508087838151811061080657610806610c74565b6020026020010181815250505050808061081f90610d6f565b9150506106a0565b50505050919050565b600260055461083f9190610d86565b600254111561088f576008805460ff191660011790556040517f14bde92ebbe4bbfd8136903ee7942baf7b6a38d5f61b916bbe0aa1a2ca82921c9061088690600790610d9a565b60405180910390a15b565b82805482825590600052602060002090601f016020900481019282156109275791602002820160005b838211156108f857835183826101000a81548160ff021916908360ff16021790555092602001926001016020816000010492830192600103026108ba565b80156109255782816101000a81549060ff02191690556001016020816000010492830192600103026108f8565b505b50610933929150610937565b5090565b5b808211156109335760008155600101610938565b634e487b7160e01b600052604160045260246000fd5b604051601f8201601f1916810167ffffffffffffffff8111828210171561098b5761098b61094c565b604052919050565b600067ffffffffffffffff8211156109ad576109ad61094c565b5060051b60200190565b600082601f8301126109c857600080fd5b813560206109dd6109d883610993565b610962565b82815260059290921b840181019181810190868411156109fc57600080fd5b8286015b84811015610a2757803560ff81168114610a1a5760008081fd5b8352918301918301610a00565b509695505050505050565b60008060408385031215610a4557600080fd5b823567ffffffffffffffff80821115610a5d57600080fd5b610a69868387016109b7565b9350602091508185013581811115610a8057600080fd5b8501601f81018713610a9157600080fd5b8035610a9f6109d882610993565b81815260059190911b82018401908481019089831115610abe57600080fd5b8584015b83811015610af657803586811115610ada5760008081fd5b610ae88c89838901016109b7565b845250918601918601610ac2565b508096505050505050509250929050565b6020808252825182820181905260009190848201906040850190845b81811015610b4257835160ff1683529284019291840191600101610b23565b50909695505050505050565b600060208284031215610b6057600080fd5b81356001600160a01b0381168114610b7757600080fd5b9392505050565b6020810160028310610ba057634e487b7160e01b600052602160045260246000fd5b91905290565b600081518084526020808501945080840160005b83811015610bd657815187529582019590820190600101610bba565b509495945050505050565b85815284602082015283604082015260a060608201526000610c0660a0830185610ba6565b8281036080840152610c188185610ba6565b98975050505050505050565b600060208284031215610c3657600080fd5b813567ffffffffffffffff811115610c4d57600080fd5b610c59848285016109b7565b949350505050565b602081526000610b776020830184610ba6565b634e487b7160e01b600052603260045260246000fd5b634e487b7160e01b600052601160045260246000fd5b600060ff821660ff8103610cb657610cb6610c8a565b60010192915050565b600060ff821660ff84168060ff03821115610cdc57610cdc610c8a565b019392505050565b60008219821115610cf757610cf7610c8a565b500190565b600060018201610d0e57610d0e610c8a565b5060010190565b600082821015610d2757610d27610c8a565b500390565b600060208284031215610d3e57600080fd5b5051919050565b634e487b7160e01b600052601260045260246000fd5b600082610d6a57610d6a610d45565b500690565b600081610d7e57610d7e610c8a565b506000190190565b600082610d9557610d95610d45565b500490565b60006020808301818452808554610db5818490815260200190565b60008881526020812094509092505b81601f8201101561103e57835460ff8082168552600882901c8116878601526040610df8818701838560101c1660ff169052565b6060610e0d818801848660181c1660ff169052565b6080610e2181890185878d1c1660ff169052565b60a0610e36818a01868860281c1660ff169052565b60c0610e4b818b01878960301c1660ff169052565b60e0610e60818c01888a60381c1660ff169052565b60ff88871c8816166101008c0152610e836101208c01888a60481c1660ff169052565b610e986101408c01888a60501c1660ff169052565b610ead6101608c01888a60581c1660ff169052565b60ff88861c8816166101808c0152610ed06101a08c01888a60681c1660ff169052565b610ee56101c08c01888a60701c1660ff169052565b610efa6101e08c01888a60781c1660ff169052565b60ff88851c8816166102008c0152610f1d6102208c01888a60881c1660ff169052565b610f326102408c01888a60901c1660ff169052565b610f476102608c01888a60981c1660ff169052565b60ff88841c8816166102808c0152610f6a6102a08c01888a60a81c1660ff169052565b610f7f6102c08c01888a60b01c1660ff169052565b610f946102e08c01888a60b81c1660ff169052565b60ff88831c8816166103008c0152610fb76103208c01888a60c81c1660ff169052565b610fcc6103408c01888a60d01c1660ff169052565b610fe16103608c01888a60d81c1660ff169052565b60ff88821c8816166103808c015250505050505061100a6103a08601828460e81c1660ff169052565b61101f6103c08601828460f01c1660ff169052565b5060f81c6103e084015260019390930192610400909201918401610dc4565b925492818110156110575760ff84168352918401916001015b8181101561107157600884901c60ff168352918401916001015b8181101561108b57601084901c60ff168352918401916001015b818110156110a557601884901c60ff168352918401916001015b818110156110bd5783851c60ff168352918401916001015b818110156110d757602884901c60ff168352918401916001015b818110156110f157603084901c60ff168352918401916001015b8181101561110b57603884901c60ff168352918401916001015b8181101561112557604084901c60ff168352918401916001015b8181101561113f57604884901c60ff168352918401916001015b8181101561115957605084901c60ff168352918401916001015b8181101561117357605884901c60ff168352918401916001015b8181101561118d57606084901c60ff168352918401916001015b818110156111a757606884901c60ff168352918401916001015b818110156111c157607084901c60ff168352918401916001015b818110156111db57607884901c60ff168352918401916001015b818110156111f557608084901c60ff168352918401916001015b8181101561120f57608884901c60ff168352918401916001015b8181101561122957609084901c60ff168352918401916001015b8181101561124357609884901c60ff168352918401916001015b8181101561125d5760a084901c60ff168352918401916001015b818110156112775760a884901c60ff168352918401916001015b818110156112915760b084901c60ff168352918401916001015b818110156112ab5760b884901c60ff168352918401916001015b818110156112c55760c084901c60ff168352918401916001015b818110156112df5760c884901c60ff168352918401916001015b818110156112f95760d084901c60ff168352918401916001015b818110156113135760d884901c60ff168352918401916001015b8181101561132d5760e084901c60ff168352918401916001015b818110156113475760e884901c60ff168352918401916001015b818110156113615760f084901c60ff168352918401916001015b81811015610b4257505060f89190911c815201939250505056fea264697066735822122007e1137007b347d03e5467bd6f3adda8b398e104c55c9d63d09168f45a9f9d9e64736f6c634300080d0033000000000000000000000000000000000000000000000000000000000000006000000000000000000000000099b422c0d1625304be4bcb04a3ca20af02d998a2000000000000000000000000000000000000000000000000000000000000000200000000000000000000000000000000000000000000000000000000000000030000000000000000000000009db3a915dfdc6f6975769657fe2194d661ba536f0000000000000000000000006e10679eaf9cc4733274a0f85148f4126364c2b5000000000000000000000000793591f2569b27208df6ed3ceb396e1c89f4c630",
        "nonce": "0x11",
        "accessList": []
      },
      "additionalContracts": [],
      "isFixedGasLimit": false
    },
    {
      "hash": "0xf3b01894f672e234bae064672f80e0874e5b0ad1d4790242a4fc6f67ea8f7c6f",
      "transactionType": "CALL",
      "contractName": "PeerGrading",
      "contractAddress": "0x6805b9009d51CA91d5F8bB41C81f036DEf691113",
      "function": "receiveConsensus(uint8[])",
      "arguments": [
        "[5, 4, 3, 2, 1]"
      ],
      "transaction": {
        "type": "0x02",
        "from": "0x9db3a915dfdc6f6975769657fe2194d661ba536f",
        "to": "0x6805b9009d51ca91d5f8bb41c81f036def691113",
        "gas": "0x1d806",
        "value": "0x0",
        "data": "0x860bea870000000000000000000000000000000000000000000000000000000000000020000000000000000000000000000000000000000000000000000000000000000500000000000000000000000000000000000000000000000000000000000000050000000000000000000000000000000000000000000000000000000000000004000000000000000000000000000000000000000000000000000000000000000300000000000000000000000000000000000000000000000000000000000000020000000000000000000000000000000000000000000000000000000000000001",
        "nonce": "0x12",
        "accessList": []
      },
      "additionalContracts": [],
      "isFixedGasLimit": false
    },
    {
      "hash": "0xd8de5dfe89b5c10bd0cd8a529e1800abd28c0c7c91d20362f8e4e102bda1b490",
      "transactionType": "CALL",
      "contractName": "PeerGrading",
      "contractAddress": "0x6805b9009d51CA91d5F8bB41C81f036DEf691113",
      "function": "vote()",
      "arguments": [],
      "transaction": {
        "type": "0x02",
        "from": "0x9db3a915dfdc6f6975769657fe2194d661ba536f",
        "to": "0x6805b9009d51ca91d5f8bb41c81f036def691113",
        "gas": "0xfc3d",
        "value": "0x0",
        "data": "0x632a9a52",
        "nonce": "0x13",
        "accessList": []
      },
      "additionalContracts": [],
      "isFixedGasLimit": false
    },
    {
      "hash": "0x9fa5dc63c1b3cc5f76111c473d521e17ad06d31f7587e995decd804a62e9b590",
      "transactionType": "CALL",
      "contractName": "PeerGrading",
      "contractAddress": "0x6805b9009d51CA91d5F8bB41C81f036DEf691113",
      "function": "finalizeConsensus()",
      "arguments": [],
      "transaction": {
        "type": "0x02",
        "from": "0x9db3a915dfdc6f6975769657fe2194d661ba536f",
        "to": "0x6805b9009d51ca91d5f8bb41c81f036def691113",
        "gas": "0x9229",
        "value": "0x0",
        "data": "0xd54e4b99",
        "nonce": "0x14",
        "accessList": []
      },
      "additionalContracts": [],
      "isFixedGasLimit": false
    },
    {
      "hash": "0x2f7e6b1fa5198e82636093c0ea9b5f99242237f881da8aa1bc9a606c6d42b413",
      "transactionType": "CALL",
      "contractName": "PeerGrading",
      "contractAddress": "0x6805b9009d51CA91d5F8bB41C81f036DEf691113",
      "function": "receiveConsensus(uint8[])",
      "arguments": [
        "[3, 1, 2, 4, 5]"
      ],
      "transaction": {
        "type": "0x02",
        "from": "0x9db3a915dfdc6f6975769657fe2194d661ba536f",
        "to": "0x6805b9009d51ca91d5f8bb41c81f036def691113",
        "gas": "0x1059a",
        "value": "0x0",
        "data": "0x860bea870000000000000000000000000000000000000000000000000000000000000020000000000000000000000000000000000000000000000000000000000000000500000000000000000000000000000000000000000000000000000000000000030000000000000000000000000000000000000000000000000000000000000001000000000000000000000000000000000000000000000000000000000000000200000000000000000000000000000000000000000000000000000000000000040000000000000000000000000000000000000000000000000000000000000005",
        "nonce": "0x15",
        "accessList": []
      },
      "additionalContracts": [],
      "isFixedGasLimit": false
    },
    {
      "hash": "0xd49f201df2b549d5a1bca1f9fff0e34548c41a3ca5b692612bfeb07028dc66f9",
      "transactionType": "CALL",
      "contractName": "PeerGrading",
      "contractAddress": "0x6805b9009d51CA91d5F8bB41C81f036DEf691113",
      "function": "vote()",
      "arguments": [],
      "transaction": {
        "type": "0x02",
        "from": "0x9db3a915dfdc6f6975769657fe2194d661ba536f",
        "to": "0x6805b9009d51ca91d5f8bb41c81f036def691113",
        "gas": "0xfc3d",
        "value": "0x0",
        "data": "0x632a9a52",
        "nonce": "0x16",
        "accessList": []
      },
      "additionalContracts": [],
      "isFixedGasLimit": false
    },
    {
      "hash": "0xbdca4d0ca4a32483f28bc53ea4b4f3f9c6d505f0f1ac97e7e4064c3115b8feeb",
      "transactionType": "CALL",
      "contractName": "PeerGrading",
      "contractAddress": "0x6805b9009d51CA91d5F8bB41C81f036DEf691113",
      "function": "finalizeConsensus()",
      "arguments": [],
      "transaction": {
        "type": "0x02",
        "from": "0x9db3a915dfdc6f6975769657fe2194d661ba536f",
        "to": "0x6805b9009d51ca91d5f8bb41c81f036def691113",
        "gas": "0x9229",
        "value": "0x0",
        "data": "0xd54e4b99",
        "nonce": "0x17",
        "accessList": []
      },
      "additionalContracts": [],
      "isFixedGasLimit": false
    }
  ],
  "receipts": [
    {
      "transactionHash": "0x3861ef171c34662cf39026897d949084382bef247d3459ad738db04b401965af",
      "transactionIndex": "0xd",
      "blockHash": "0x0d15ffc66c695fb9aaa815c88eb525fd066f3a84b9c9ad4c072731de87cf024d",
      "blockNumber": "0x2652c20",
      "from": "0x9dB3a915dFdc6f6975769657fE2194d661bA536f",
      "to": null,
      "cumulativeGasUsed": "0x296b90",
      "gasUsed": "0x21aa2",
      "contractAddress": "0x6AE4B27DA02fdF0D946aFFA18fbc03CBC2717014",
      "logs": [
        {
          "address": "0x0000000000000000000000000000000000001010",
          "topics": [
            "0x4dfe1bbbcf077ddc3e01291eea2d5c70c2b422b415d95645b9adcfd678cb1d63",
            "0x0000000000000000000000000000000000000000000000000000000000001010",
            "0x0000000000000000000000009db3a915dfdc6f6975769657fe2194d661ba536f",
            "0x0000000000000000000000005082f249cdb2f2c1ee035e4f423c46ea2dab3ab1"
          ],
          "data": "0x0000000000000000000000000000000000000000000000000009cc34593d00820000000000000000000000000000000000000000000000000c3bb1bd9baff8000000000000000000000000000000000000000000000001cdafc4a919a9209b050000000000000000000000000000000000000000000000000c31e5894272f77e0000000000000000000000000000000000000000000001cdafce754e025d9b87",
          "blockHash": "0x0d15ffc66c695fb9aaa815c88eb525fd066f3a84b9c9ad4c072731de87cf024d",
          "blockNumber": "0x2652c20",
          "transactionHash": "0x3861ef171c34662cf39026897d949084382bef247d3459ad738db04b401965af",
          "transactionIndex": "0xd",
          "logIndex": "0x2a",
          "removed": false
        }
      ],
      "status": "0x1",
      "logsBloom": "0x00000000000000000000000000000000000000000000000000000000020000000000000002000000000000000000000002008000000000000000000000000000000000000000000000000000000000800000000000000000000100000000000000000000000000000000000000000000000000000000000080000000000000000000000000000000000000000000000000000000000000000000000000000008200000000000000000000000000000000000000000000000000000000000004000000000000000000001000000000000000000000000000000100000000000000010000000000080000000000000000000000000000000000000000000100000",
      "type": "0x2",
      "effectiveGasPrice": "0x4a817c800"
    },
    {
      "transactionHash": "0x45f1cb89c6ba4c1ae212f45ce06b0a9685a12dda466bcdb4ff976b19c425a490",
      "transactionIndex": "0xe",
      "blockHash": "0x0d15ffc66c695fb9aaa815c88eb525fd066f3a84b9c9ad4c072731de87cf024d",
      "blockNumber": "0x2652c20",
      "from": "0x9dB3a915dFdc6f6975769657fE2194d661bA536f",
      "to": null,
      "cumulativeGasUsed": "0x2f0b45",
      "gasUsed": "0x59fb5",
      "contractAddress": "0x99B422C0d1625304bE4BCB04A3cA20Af02d998A2",
      "logs": [
        {
          "address": "0x0000000000000000000000000000000000001010",
          "topics": [
            "0x4dfe1bbbcf077ddc3e01291eea2d5c70c2b422b415d95645b9adcfd678cb1d63",
            "0x0000000000000000000000000000000000000000000000000000000000001010",
            "0x0000000000000000000000009db3a915dfdc6f6975769657fe2194d661ba536f",
            "0x0000000000000000000000005082f249cdb2f2c1ee035e4f423c46ea2dab3ab1"
          ],
          "data": "0x000000000000000000000000000000000000000000000000001a302885b40c650000000000000000000000000000000000000000000000000c31e589425368000000000000000000000000000000000000000000000001cdafce754e025d9b870000000000000000000000000000000000000000000000000c17b560bc9f5b9b0000000000000000000000000000000000000000000001cdafe8a5768811a7ec",
          "blockHash": "0x0d15ffc66c695fb9aaa815c88eb525fd066f3a84b9c9ad4c072731de87cf024d",
          "blockNumber": "0x2652c20",
          "transactionHash": "0x45f1cb89c6ba4c1ae212f45ce06b0a9685a12dda466bcdb4ff976b19c425a490",
          "transactionIndex": "0xe",
          "logIndex": "0x2b",
          "removed": false
        }
      ],
      "status": "0x1",
      "logsBloom": "0x00000000000000000000000000000000000000000000000000000000020000000000000002000000000000000000000002008000000000000000000000000000000000000000000000000000000000800000000000000000000100000000000000000000000000000000000000000000000000000000000080000000000000000000000000000000000000000000000000000000000000000000000000000008200000000000000000000000000000000000000000000000000000000000004000000000000000000001000000000000000000000000000000100000000000000010000000000080000000000000000000000000000000000000000000100000",
      "type": "0x2",
      "effectiveGasPrice": "0x4a817c800"
    },
    {
      "transactionHash": "0x9faa0ce13c5f1afe36fcc74f4723018b8ac8a6c1008dd2d9f8813d5eb11f897f",
      "transactionIndex": "0xf",
      "blockHash": "0x0d15ffc66c695fb9aaa815c88eb525fd066f3a84b9c9ad4c072731de87cf024d",
      "blockNumber": "0x2652c20",
      "from": "0x9dB3a915dFdc6f6975769657fE2194d661bA536f",
      "to": null,
      "cumulativeGasUsed": "0x44420f",
      "gasUsed": "0x1536ca",
      "contractAddress": "0x6805b9009d51CA91d5F8bB41C81f036DEf691113",
      "logs": [
        {
          "address": "0x6805b9009d51CA91d5F8bB41C81f036DEf691113",
          "topics": [
            "0x3087081998813b524fe5bfb62b23127ab88f76896bbbc43aa2b580bde4517630",
            "0x0000000000000000000000009db3a915dfdc6f6975769657fe2194d661ba536f",
            "0x0000000000000000000000000000000000000000000000000000000000000001"
          ],
          "data": "0x",
          "blockHash": "0x0d15ffc66c695fb9aaa815c88eb525fd066f3a84b9c9ad4c072731de87cf024d",
          "blockNumber": "0x2652c20",
          "transactionHash": "0x9faa0ce13c5f1afe36fcc74f4723018b8ac8a6c1008dd2d9f8813d5eb11f897f",
          "transactionIndex": "0xf",
          "logIndex": "0x2c",
          "removed": false
        },
        {
          "address": "0x6805b9009d51CA91d5F8bB41C81f036DEf691113",
          "topics": [
            "0x3087081998813b524fe5bfb62b23127ab88f76896bbbc43aa2b580bde4517630",
            "0x0000000000000000000000006e10679eaf9cc4733274a0f85148f4126364c2b5",
            "0x0000000000000000000000000000000000000000000000000000000000000002"
          ],
          "data": "0x",
          "blockHash": "0x0d15ffc66c695fb9aaa815c88eb525fd066f3a84b9c9ad4c072731de87cf024d",
          "blockNumber": "0x2652c20",
          "transactionHash": "0x9faa0ce13c5f1afe36fcc74f4723018b8ac8a6c1008dd2d9f8813d5eb11f897f",
          "transactionIndex": "0xf",
          "logIndex": "0x2d",
          "removed": false
        },
        {
          "address": "0x6805b9009d51CA91d5F8bB41C81f036DEf691113",
          "topics": [
            "0x3087081998813b524fe5bfb62b23127ab88f76896bbbc43aa2b580bde4517630",
            "0x000000000000000000000000793591f2569b27208df6ed3ceb396e1c89f4c630",
            "0x0000000000000000000000000000000000000000000000000000000000000003"
          ],
          "data": "0x",
          "blockHash": "0x0d15ffc66c695fb9aaa815c88eb525fd066f3a84b9c9ad4c072731de87cf024d",
          "blockNumber": "0x2652c20",
          "transactionHash": "0x9faa0ce13c5f1afe36fcc74f4723018b8ac8a6c1008dd2d9f8813d5eb11f897f",
          "transactionIndex": "0xf",
          "logIndex": "0x2e",
          "removed": false
        },
        {
          "address": "0x0000000000000000000000000000000000001010",
          "topics": [
            "0x4dfe1bbbcf077ddc3e01291eea2d5c70c2b422b415d95645b9adcfd678cb1d63",
            "0x0000000000000000000000000000000000000000000000000000000000001010",
            "0x0000000000000000000000009db3a915dfdc6f6975769657fe2194d661ba536f",
            "0x0000000000000000000000005082f249cdb2f2c1ee035e4f423c46ea2dab3ab1"
          ],
          "data": "0x0000000000000000000000000000000000000000000000000062c9150db59a2a0000000000000000000000000000000000000000000000000c17b560bc4b00000000000000000000000000000000000000000000000001cdafe8a5768811a7ec0000000000000000000000000000000000000000000000000bb4ec4bae9565d60000000000000000000000000000000000000000000001cdb04b6e8b95c74216",
          "blockHash": "0x0d15ffc66c695fb9aaa815c88eb525fd066f3a84b9c9ad4c072731de87cf024d",
          "blockNumber": "0x2652c20",
          "transactionHash": "0x9faa0ce13c5f1afe36fcc74f4723018b8ac8a6c1008dd2d9f8813d5eb11f897f",
          "transactionIndex": "0xf",
          "logIndex": "0x2f",
          "removed": false
        }
      ],
      "status": "0x1",
      "logsBloom": "0x04000000000000000000000000000000000000000000000000000000020000000000000002000010000004000000000002008000020000000000000000040000000000000002000010000000000000800000000000040000000100000000000000000000000000000000200000000000000000000000000180000000000000000000000000000004000000000000000000000000000000004000000000000008200000000000000000000100000000000000000000800000000000000000404000000010000000000001000000000000000000000400000000100000000040000010000020000080000010000000000000000000008000000000000000100000",
      "type": "0x2",
      "effectiveGasPrice": "0x4a817c800"
    },
    {
      "transactionHash": "0xf3b01894f672e234bae064672f80e0874e5b0ad1d4790242a4fc6f67ea8f7c6f",
      "transactionIndex": "0x10",
      "blockHash": "0x0d15ffc66c695fb9aaa815c88eb525fd066f3a84b9c9ad4c072731de87cf024d",
      "blockNumber": "0x2652c20",
      "from": "0x9dB3a915dFdc6f6975769657fE2194d661bA536f",
      "to": "0x6805b9009d51CA91d5F8bB41C81f036DEf691113",
      "cumulativeGasUsed": "0x4597cd",
      "gasUsed": "0x155be",
      "contractAddress": null,
      "logs": [
        {
          "address": "0x6805b9009d51CA91d5F8bB41C81f036DEf691113",
          "topics": [
            "0x5cc0e5bf5f40fff8ef623d36904aa6e6a9096143192597ab46bc537605b61e08",
            "0x0000000000000000000000009db3a915dfdc6f6975769657fe2194d661ba536f"
          ],
          "data": "0x0000000000000000000000000000000000000000000000000000000000000020000000000000000000000000000000000000000000000000000000000000000500000000000000000000000000000000000000000000000000000000000000050000000000000000000000000000000000000000000000000000000000000004000000000000000000000000000000000000000000000000000000000000000300000000000000000000000000000000000000000000000000000000000000020000000000000000000000000000000000000000000000000000000000000001",
          "blockHash": "0x0d15ffc66c695fb9aaa815c88eb525fd066f3a84b9c9ad4c072731de87cf024d",
          "blockNumber": "0x2652c20",
          "transactionHash": "0xf3b01894f672e234bae064672f80e0874e5b0ad1d4790242a4fc6f67ea8f7c6f",
          "transactionIndex": "0x10",
          "logIndex": "0x30",
          "removed": false
        },
        {
          "address": "0x0000000000000000000000000000000000001010",
          "topics": [
            "0x4dfe1bbbcf077ddc3e01291eea2d5c70c2b422b415d95645b9adcfd678cb1d63",
            "0x0000000000000000000000000000000000000000000000000000000000001010",
            "0x0000000000000000000000009db3a915dfdc6f6975769657fe2194d661ba536f",
            "0x0000000000000000000000005082f249cdb2f2c1ee035e4f423c46ea2dab3ab1"
          ],
          "data": "0x0000000000000000000000000000000000000000000000000006375c6efa69de0000000000000000000000000000000000000000000000000bb4ec4bad5730000000000000000000000000000000000000000000000001cdb04b6e8b95c742160000000000000000000000000000000000000000000000000baeb4ef3e5cc6220000000000000000000000000000000000000000000001cdb051a5e804c1abf4",
          "blockHash": "0x0d15ffc66c695fb9aaa815c88eb525fd066f3a84b9c9ad4c072731de87cf024d",
          "blockNumber": "0x2652c20",
          "transactionHash": "0xf3b01894f672e234bae064672f80e0874e5b0ad1d4790242a4fc6f67ea8f7c6f",
          "transactionIndex": "0x10",
          "logIndex": "0x31",
          "removed": false
        }
      ],
      "status": "0x1",
      "logsBloom": "0x00000000000000000000000000000000000000000000000000000000020000000000000002000000000000000000000002008000000000000000000000000000000000000000000000000040000000800000000000000000000100000000000000000000000000000000000000000200000000000000000080000000000000000000000000000000000000000000000000000000000000004000000000000008200000000000000000000000000000000000000000000000000000000000004000000000000000002001000000000000000000000000000000100000000000000010000020000080000010000000000000000000000000000000000000100000",
      "type": "0x2",
      "effectiveGasPrice": "0x4a817c800"
    },
    {
      "transactionHash": "0xd8de5dfe89b5c10bd0cd8a529e1800abd28c0c7c91d20362f8e4e102bda1b490",
      "transactionIndex": "0x11",
      "blockHash": "0x0d15ffc66c695fb9aaa815c88eb525fd066f3a84b9c9ad4c072731de87cf024d",
      "blockNumber": "0x2652c20",
      "from": "0x9dB3a915dFdc6f6975769657fE2194d661bA536f",
      "to": "0x6805b9009d51CA91d5F8bB41C81f036DEf691113",
      "cumulativeGasUsed": "0x464e6c",
      "gasUsed": "0xb69f",
      "contractAddress": null,
      "logs": [
        {
          "address": "0x6805b9009d51CA91d5F8bB41C81f036DEf691113",
          "topics": [
            "0x16a9aa39af49f169911e977347975198c503525f7240d6892a626f0227642fce",
            "0x0000000000000000000000009db3a915dfdc6f6975769657fe2194d661ba536f"
          ],
          "data": "0x",
          "blockHash": "0x0d15ffc66c695fb9aaa815c88eb525fd066f3a84b9c9ad4c072731de87cf024d",
          "blockNumber": "0x2652c20",
          "transactionHash": "0xd8de5dfe89b5c10bd0cd8a529e1800abd28c0c7c91d20362f8e4e102bda1b490",
          "transactionIndex": "0x11",
          "logIndex": "0x32",
          "removed": false
        },
        {
          "address": "0x0000000000000000000000000000000000001010",
          "topics": [
            "0x4dfe1bbbcf077ddc3e01291eea2d5c70c2b422b415d95645b9adcfd678cb1d63",
            "0x0000000000000000000000000000000000000000000000000000000000001010",
            "0x0000000000000000000000009db3a915dfdc6f6975769657fe2194d661ba536f",
            "0x0000000000000000000000005082f249cdb2f2c1ee035e4f423c46ea2dab3ab1"
          ],
          "data": "0x000000000000000000000000000000000000000000000000000352654eea84af0000000000000000000000000000000000000000000000000baeb4ef3e48c0000000000000000000000000000000000000000000000001cdb051a5e804c1abf40000000000000000000000000000000000000000000000000bab6289ef5e3b510000000000000000000000000000000000000000000001cdb054f84d53ac30a3",
          "blockHash": "0x0d15ffc66c695fb9aaa815c88eb525fd066f3a84b9c9ad4c072731de87cf024d",
          "blockNumber": "0x2652c20",
          "transactionHash": "0xd8de5dfe89b5c10bd0cd8a529e1800abd28c0c7c91d20362f8e4e102bda1b490",
          "transactionIndex": "0x11",
          "logIndex": "0x33",
          "removed": false
        }
      ],
      "status": "0x1",
      "logsBloom": "0x000000000000000000000000000000000000000000000000000000000200000000000000020000000000000000000000020080000000000000000000000000000000000000000000000000000000008000000000000000000001000000800000000000000000000000000000000000000000000000000000800000000000000000010000000000000000000000000000000000000000000040000000000000082000000000000000000000000000000000000000000000000000000000000040000000000000000000010000000000000000000000000000001000000000000000100000200000a0000010000000000000000000000000000000000000100000",
      "type": "0x2",
      "effectiveGasPrice": "0x4a817c800"
    },
    {
      "transactionHash": "0x9fa5dc63c1b3cc5f76111c473d521e17ad06d31f7587e995decd804a62e9b590",
      "transactionIndex": "0x12",
      "blockHash": "0x0d15ffc66c695fb9aaa815c88eb525fd066f3a84b9c9ad4c072731de87cf024d",
      "blockNumber": "0x2652c20",
      "from": "0x9dB3a915dFdc6f6975769657fE2194d661bA536f",
      "to": "0x6805b9009d51CA91d5F8bB41C81f036DEf691113",
      "cumulativeGasUsed": "0x46b25d",
      "gasUsed": "0x63f1",
      "contractAddress": null,
      "logs": [
        {
          "address": "0x0000000000000000000000000000000000001010",
          "topics": [
            "0x4dfe1bbbcf077ddc3e01291eea2d5c70c2b422b415d95645b9adcfd678cb1d63",
            "0x0000000000000000000000000000000000000000000000000000000000001010",
            "0x0000000000000000000000009db3a915dfdc6f6975769657fe2194d661ba536f",
            "0x0000000000000000000000005082f249cdb2f2c1ee035e4f423c46ea2dab3ab1"
          ],
          "data": "0x0000000000000000000000000000000000000000000000000001d16370b56ce10000000000000000000000000000000000000000000000000bab6289ef5388000000000000000000000000000000000000000000000001cdb054f84d53ac30a30000000000000000000000000000000000000000000000000ba991267e9e1b1f0000000000000000000000000000000000000000000001cdb056c9b0c4619d84",
          "blockHash": "0x0d15ffc66c695fb9aaa815c88eb525fd066f3a84b9c9ad4c072731de87cf024d",
          "blockNumber": "0x2652c20",
          "transactionHash": "0x9fa5dc63c1b3cc5f76111c473d521e17ad06d31f7587e995decd804a62e9b590",
          "transactionIndex": "0x12",
          "logIndex": "0x34",
          "removed": false
        }
      ],
      "status": "0x1",
      "logsBloom": "0x00000000000000000000000000000000000000000000000000000000020000000000000002000000000000000000000002008000000000000000000000000000000000000000000000000000000000800000000000000000000100000000000000000000000000000000000000000000000000000000000080000000000000000000000000000000000000000000000000000000000000000000000000000008200000000000000000000000000000000000000000000000000000000000004000000000000000000001000000000000000000000000000000100000000000000010000000000080000000000000000000000000000000000000000000100000",
      "type": "0x2",
      "effectiveGasPrice": "0x4a817c800"
    },
    {
      "transactionHash": "0x2f7e6b1fa5198e82636093c0ea9b5f99242237f881da8aa1bc9a606c6d42b413",
      "transactionIndex": "0x13",
      "blockHash": "0x0d15ffc66c695fb9aaa815c88eb525fd066f3a84b9c9ad4c072731de87cf024d",
      "blockNumber": "0x2652c20",
      "from": "0x9dB3a915dFdc6f6975769657fE2194d661bA536f",
      "to": "0x6805b9009d51CA91d5F8bB41C81f036DEf691113",
      "cumulativeGasUsed": "0x476fc3",
      "gasUsed": "0xbd66",
      "contractAddress": null,
      "logs": [
        {
          "address": "0x6805b9009d51CA91d5F8bB41C81f036DEf691113",
          "topics": [
            "0x5cc0e5bf5f40fff8ef623d36904aa6e6a9096143192597ab46bc537605b61e08",
            "0x0000000000000000000000009db3a915dfdc6f6975769657fe2194d661ba536f"
          ],
          "data": "0x0000000000000000000000000000000000000000000000000000000000000020000000000000000000000000000000000000000000000000000000000000000500000000000000000000000000000000000000000000000000000000000000030000000000000000000000000000000000000000000000000000000000000001000000000000000000000000000000000000000000000000000000000000000200000000000000000000000000000000000000000000000000000000000000040000000000000000000000000000000000000000000000000000000000000005",
          "blockHash": "0x0d15ffc66c695fb9aaa815c88eb525fd066f3a84b9c9ad4c072731de87cf024d",
          "blockNumber": "0x2652c20",
          "transactionHash": "0x2f7e6b1fa5198e82636093c0ea9b5f99242237f881da8aa1bc9a606c6d42b413",
          "transactionIndex": "0x13",
          "logIndex": "0x35",
          "removed": false
        },
        {
          "address": "0x0000000000000000000000000000000000001010",
          "topics": [
            "0x4dfe1bbbcf077ddc3e01291eea2d5c70c2b422b415d95645b9adcfd678cb1d63",
            "0x0000000000000000000000000000000000000000000000000000000000001010",
            "0x0000000000000000000000009db3a915dfdc6f6975769657fe2194d661ba536f",
            "0x0000000000000000000000005082f249cdb2f2c1ee035e4f423c46ea2dab3ab1"
          ],
          "data": "0x000000000000000000000000000000000000000000000000000371f4881697060000000000000000000000000000000000000000000000000ba991267e9840000000000000000000000000000000000000000000000001cdb056c9b0c4619d840000000000000000000000000000000000000000000000000ba61f31f681a8fa0000000000000000000000000000000000000000000001cdb05a3ba54c78348a",
          "blockHash": "0x0d15ffc66c695fb9aaa815c88eb525fd066f3a84b9c9ad4c072731de87cf024d",
          "blockNumber": "0x2652c20",
          "transactionHash": "0x2f7e6b1fa5198e82636093c0ea9b5f99242237f881da8aa1bc9a606c6d42b413",
          "transactionIndex": "0x13",
          "logIndex": "0x36",
          "removed": false
        }
      ],
      "status": "0x1",
      "logsBloom": "0x00000000000000000000000000000000000000000000000000000000020000000000000002000000000000000000000002008000000000000000000000000000000000000000000000000040000000800000000000000000000100000000000000000000000000000000000000000200000000000000000080000000000000000000000000000000000000000000000000000000000000004000000000000008200000000000000000000000000000000000000000000000000000000000004000000000000000002001000000000000000000000000000000100000000000000010000020000080000010000000000000000000000000000000000000100000",
      "type": "0x2",
      "effectiveGasPrice": "0x4a817c800"
    },
    {
      "transactionHash": "0xd49f201df2b549d5a1bca1f9fff0e34548c41a3ca5b692612bfeb07028dc66f9",
      "transactionIndex": "0x14",
      "blockHash": "0x0d15ffc66c695fb9aaa815c88eb525fd066f3a84b9c9ad4c072731de87cf024d",
      "blockNumber": "0x2652c20",
      "from": "0x9dB3a915dFdc6f6975769657fE2194d661bA536f",
      "to": "0x6805b9009d51CA91d5F8bB41C81f036DEf691113",
      "cumulativeGasUsed": "0x482662",
      "gasUsed": "0xb69f",
      "contractAddress": null,
      "logs": [
        {
          "address": "0x6805b9009d51CA91d5F8bB41C81f036DEf691113",
          "topics": [
            "0x16a9aa39af49f169911e977347975198c503525f7240d6892a626f0227642fce",
            "0x0000000000000000000000009db3a915dfdc6f6975769657fe2194d661ba536f"
          ],
          "data": "0x",
          "blockHash": "0x0d15ffc66c695fb9aaa815c88eb525fd066f3a84b9c9ad4c072731de87cf024d",
          "blockNumber": "0x2652c20",
          "transactionHash": "0xd49f201df2b549d5a1bca1f9fff0e34548c41a3ca5b692612bfeb07028dc66f9",
          "transactionIndex": "0x14",
          "logIndex": "0x37",
          "removed": false
        },
        {
          "address": "0x0000000000000000000000000000000000001010",
          "topics": [
            "0x4dfe1bbbcf077ddc3e01291eea2d5c70c2b422b415d95645b9adcfd678cb1d63",
            "0x0000000000000000000000000000000000000000000000000000000000001010",
            "0x0000000000000000000000009db3a915dfdc6f6975769657fe2194d661ba536f",
            "0x0000000000000000000000005082f249cdb2f2c1ee035e4f423c46ea2dab3ab1"
          ],
          "data": "0x000000000000000000000000000000000000000000000000000352654eea84af0000000000000000000000000000000000000000000000000ba61f31f67690000000000000000000000000000000000000000000000001cdb05a3ba54c78348a0000000000000000000000000000000000000000000000000ba2cccca78c0b510000000000000000000000000000000000000000000001cdb05d8e0a9b62b939",
          "blockHash": "0x0d15ffc66c695fb9aaa815c88eb525fd066f3a84b9c9ad4c072731de87cf024d",
          "blockNumber": "0x2652c20",
          "transactionHash": "0xd49f201df2b549d5a1bca1f9fff0e34548c41a3ca5b692612bfeb07028dc66f9",
          "transactionIndex": "0x14",
          "logIndex": "0x38",
          "removed": false
        }
      ],
      "status": "0x1",
      "logsBloom": "0x000000000000000000000000000000000000000000000000000000000200000000000000020000000000000000000000020080000000000000000000000000000000000000000000000000000000008000000000000000000001000000800000000000000000000000000000000000000000000000000000800000000000000000010000000000000000000000000000000000000000000040000000000000082000000000000000000000000000000000000000000000000000000000000040000000000000000000010000000000000000000000000000001000000000000000100000200000a0000010000000000000000000000000000000000000100000",
      "type": "0x2",
      "effectiveGasPrice": "0x4a817c800"
    },
    {
      "transactionHash": "0xbdca4d0ca4a32483f28bc53ea4b4f3f9c6d505f0f1ac97e7e4064c3115b8feeb",
      "transactionIndex": "0x15",
      "blockHash": "0x0d15ffc66c695fb9aaa815c88eb525fd066f3a84b9c9ad4c072731de87cf024d",
      "blockNumber": "0x2652c20",
      "from": "0x9dB3a915dFdc6f6975769657fE2194d661bA536f",
      "to": "0x6805b9009d51CA91d5F8bB41C81f036DEf691113",
      "cumulativeGasUsed": "0x488a53",
      "gasUsed": "0x63f1",
      "contractAddress": null,
      "logs": [
        {
          "address": "0x0000000000000000000000000000000000001010",
          "topics": [
            "0x4dfe1bbbcf077ddc3e01291eea2d5c70c2b422b415d95645b9adcfd678cb1d63",
            "0x0000000000000000000000000000000000000000000000000000000000001010",
            "0x0000000000000000000000009db3a915dfdc6f6975769657fe2194d661ba536f",
            "0x0000000000000000000000005082f249cdb2f2c1ee035e4f423c46ea2dab3ab1"
          ],
          "data": "0x0000000000000000000000000000000000000000000000000001d16370b56ce10000000000000000000000000000000000000000000000000ba2cccca78158000000000000000000000000000000000000000000000001cdb05d8e0a9b62b9390000000000000000000000000000000000000000000000000ba0fb6936cbeb1f0000000000000000000000000000000000000000000001cdb05f5f6e0c18261a",
          "blockHash": "0x0d15ffc66c695fb9aaa815c88eb525fd066f3a84b9c9ad4c072731de87cf024d",
          "blockNumber": "0x2652c20",
          "transactionHash": "0xbdca4d0ca4a32483f28bc53ea4b4f3f9c6d505f0f1ac97e7e4064c3115b8feeb",
          "transactionIndex": "0x15",
          "logIndex": "0x39",
          "removed": false
        }
      ],
      "status": "0x1",
      "logsBloom": "0x00000000000000000000000000000000000000000000000000000000020000000000000002000000000000000000000002008000000000000000000000000000000000000000000000000000000000800000000000000000000100000000000000000000000000000000000000000000000000000000000080000000000000000000000000000000000000000000000000000000000000000000000000000008200000000000000000000000000000000000000000000000000000000000004000000000000000000001000000000000000000000000000000100000000000000010000000000080000000000000000000000000000000000000000000100000",
      "type": "0x2",
      "effectiveGasPrice": "0x4a817c800"
    }
  ],
  "libraries": [
    "src/CommitUtils.sol:CommitUtils:0x6ae4b27da02fdf0d946affa18fbc03cbc2717014"
  ],
  "pending": [],
  "returns": {},
  "timestamp": 1694890536,
  "chain": 80001,
  "multi": false,
  "commit": "a0253d9"
}